:020000040800F2
:10000000A8090020012D0008AD030008AF03000877
:10001000B3030008B7030008BB030008000000009A
:10002000000000000000000000000000BF03000806
:10003000C103000800000000C3030008DF480008F7
:100040001B2D00081B2D00081B2D00081B2D000870
:100050001B2D00081B2D00081B2D00081B2D000860
:100060001B2D00081B2D00081B2D00081B2D000850
:100070001B2D00081B2D0008F54D00081B2D000846
:100080001B2D00081B2D00081B2D00081B2D000830
:100090001B2D00081B2D00081B2D00081B2D000820
:1000A0001B2D00081B2D00081B2D00081B2D000810
:1000B0001B2D0008F32F00081B2D00081B2D000826
:1000C0001B2D0008D54D0008DF4D00081B2D000832
:1000D0001B2D00080B2F00081B2D00081B2D0008EE
:1000E0001B2D00081B2D00081B2D00081B2D0008D0
:1000F0001B2D00081B2D00081B2D0008EB4D0008D0
:100100001B2D00081B2D00081B2D00081B2D0008AF
:100110001B2D00081B2D00081B2D00081B2D00089F
:100120001B2D00081B2D00081B2D00081B2D00088F
:100130001B2D00081B2D00081B2D00081B2D00087F
:100140001B2D00081B2D00081B2D00081B2D00086F
:100150001B2D00081B2D00081B2D00081B2D00085F
:100160001B2D00081B2D00081B2D00081B2D00084F
:100170001B2D00081B2D00081B2D00081B2D00083F
:100180001B2D00081B2D000800F002F800F03CF8C1
:100190000AA090E8000C82448344AAF10107DA45E2
:1001A00001D100F031F8AFF2090EBAE80F0013F0F8
:1001B000010F18BFFB1A43F001031847A8500000B5
:1001C000C8500000103A24BF78C878C1FAD8520746
:1001D00024BF30C830C144BF04680C6070470000C1
:1001E0000023002400250026103A28BF78C1FBD840
:1001F000520728BF30C148BF0B6070471FB504F0DD
:10020000BDFF1FBD10B510BD04F074FF1146FFF710
:10021000F5FF00F096F804F0A6FF03B4FFF7F2FF35
:1002200003BC02F00FFE00001CB50121042001F008
:1002300097FB4FF44060009001208DF804000320EC
:100240008DF8050000208DF8060001208DF80700CC
:100250006946454800F0BAFE002044490860012084
:100260004349C1F8A8021CBD1CB50121084601F094
:1002700077FB0420009001208DF8040003208DF806
:10028000050000208DF8060001208DF80700694662
:10029000384800F09BFE00203749086040F6B8302F
:1002A00002F0B0FD01203549C1F888021CBD10B52F
:1002B0004FF4A06000F08EF9A82002F041FD4FF449
:1002C000966002F0CDFDFFF7AFFFFFF7CDFF02F024
:1002D000D5FE04F097FD10BD002000E0401C5A2818
:1002E000FCD3704770477047704770B5244800884A
:1002F00000F40040E0B12248057822A004F0BCFEE2
:1003000000240DE02448015D244802F0E9FB00BF11
:100310004021224802F094FC0128F9D1601CC4B2AB
:10032000AC42EFDB1EA004F0A7FE002014490880B9
:100330001348008800F4004010B1002010490880E4
:1003400070BDFFF7B4FF0EE0642002F05BFD3320C8
:10035000154908704420487055211348817004F0F5
:10036000BCFDFFF7C2FFEFE700080240AC024142CC
:10037000000041420000024088024042000040422A
:10038000300000200D0AC4FAB7A2CBCDB5C4CFFB14
:10039000CFA2CEAA3A0D0A00BC00002000100140F6
:1003A0000D0A0D0A0000000036020020704700BF51
:1003B000FEE700BFFEE700BFFEE700BFFEE77047B5
:1003C000704770470CB50020019000907648006897
:1003D00040F480307449086000BF7348006800F43E
:1003E000003000900198401C0190009818B90198C5
:1003F000B0F5A04FF1D16C48006800F4003010B1A6
:100400000120009001E0002000900098012846D1D2
:1004100065484030006840F08050634940310860D2
:100420006248006840F44040604908605E48083017
:1004300000685D49083108600846006840F40040E3
:1004400008600846006840F4A05008605848091F3A
:100450000860081F006840F08070091F086000BF36
:100460005148006800F000700028F9D040F2057093
:10047000504908604C480830006820F003004A49A1
:10048000083108600846006840F00200086000BFBC
:1004900045480830006800F00C000828F8D10CBD71
:1004A00010B54548006840F47000434908603E4874
:1004B000006840F001003C49086000203A490831DA
:1004C0000860394800683D490840374908603C48A1
:1004D000091D0860081F006820F48020091F0860BB
:1004E000002031490C310860FFF76CFF4FF00060CD
:1004F00031498039086010BD70B500200022022308
:1005000000240221284D08352D6805F00C0020B18B
:10051000042806D0082834D107E02A4D2A4E356039
:1005200033E02A4D284E35602FE01F4D2D1D2D68DC
:10053000C5F380541C4D2D1D2D6805F03F0154B1AD
:10054000224DB5FBF1F5184E361D3668C6F38816F8
:1005500005FB06F209E01B4DB5FBF1F5124E361D09
:100560003668C6F3881605FB06F20F4D2D1D2D6863
:10057000C5F301456D1C6B00B2FBF3F5124E3560FF
:1005800003E0104D104E356000BF00BF064D08352A
:100590002D68C5F303150E4E705D0B4D2D68C540DB
:1005A000094E356070BD0000003802400070004008
:1005B00008544007003C024088ED00E0FFFFF6FED3
:1005C000103000240024F4000000002000127A0003
:1005D0000400002032490143324A1160704770B56F
:1005E000002100230F22C4781CB32E4C246804F48D
:1005F000E064C4F5E064C4F30721C1F10404E3B28C
:100600000A4144789C40E1B28478144021430C07AD
:10061000210E254C05786155047804F01F0501244E
:10062000AC4005786D11AD0005F1E025C5F800413D
:1006300009E0047804F01F050124AC401B4D067846
:10064000761145F8264070BD194A0A400243154B01
:100650001B1F1A60704739B1124A121D12680243FB
:10066000104B1B1D1A6006E00E4A121D12688243D1
:100670000C4B1B1D1A607047042808D14FF0E02175
:10068000096941F004014FF0E022116107E04FF0E9
:10069000E021096921F004014FF0E0221161704767
:1006A0000000FA050CED00E000E400E080E100E06D
:1006B00080FFFF1F10B50121080201F000FA0021A0
:1006C0004FF4807001F0FBF910BD30B502460020F8
:1006D00000235068F84C20400D790C6844EA05244A
:1006E000204350609068F54C2040D1E903542C43DE
:1006F0008D682C434D7944EA450420439060D06ACC
:1007000020F470000C7D641EE4B2234340EA0350E1
:10071000D06230BD00210160017141718160C16012
:1007200001610121017570470021E54A1168E54A20
:100730001140D0E900231A4383681A43C3681A435F
:100740001143E14AC2F8041370470021016041607F
:100750008160C160704721B1826842F0010282600D
:1007600003E0826822F00102826070470A4600219D
:100770004168D64B19401143416070474162826223
:1007800070470A460021416821F01F011143416072
:10079000704738B1CA49096841F40001CA4AC2F831
:1007A000041306E0C649096821F40001C64AC2F8EC
:1007B0000413704738B1C249096841F48001C24A44
:1007C000C2F8041306E0BE49096821F48001BE4A5C
:1007D000C2F804137047F0B504460D46002000210E
:1007E000092D11DDE068A5F10A0606EB460707268C
:1007F00006FA07F18843A5F10A0606EB460603FA56
:1008000006F10843E0600CE0206905EB4507072688
:1008100006FA07F1884305EB450603FA06F108439B
:100820002061072A0FDA606B561E06EB86071F262B
:1008300006FA07F18843561E06EB860605FA06F10E
:100840000843606322E00D2A0FDA206BD61F06EB07
:1008500086071F2606FA07F18843D61F06EB860691
:1008600005FA06F10843206310E0E06AA2F10D06E4
:1008700006EB86071F2606FA07F18843A2F10D064C
:1008800006EB860605FA06F10843E062F0BD8168D2
:1008900041F0804181607047014600208A6802F083
:1008A00080420AB1012000E00020704721B1826837
:1008B00042F48062826003E0826822F48062826097
:1008C000704721B1826842F00202826003E08268D0
:1008D00022F002028260704710B50A460021002310
:1008E000416821F46041531E41EA4331416010BD2B
:1008F00021B1426842F40062426003E0426822F49F
:100900000062426070470146C86C80B270476C4814
:10091000001D0068704721B1826842F480728260D5
:1009200003E0826822F480728260704721B182689D
:1009300042F40072826003E0826822F400728260F6
:10094000704738B15E49096841F400515E4AC2F807
:10095000041306E05A49096821F400515A4AC2F8C2
:1009600004137047F0B50446154600200022002607
:10097000092911DDE068A1F10A0707EB470C0727F9
:1009800007FA0CF29043A1F10A0707EB470703FAB5
:1009900007F21043E0600CE0206901EB410C0727EF
:1009A00007FA0CF2904301EB410703FA07F21043F8
:1009B0002061A06BC0F30156EF1C06F1010CA7EB00
:1009C0000C0707EB870C1F2707FA0CF29043EF1C6C
:1009D00006F1010CA7EB0C0707EB870701FA07F2FA
:1009E0001043A063F0BD10B50A4600210023816BBF
:1009F00021F44011531E41EA0351816310BD08B533
:100A0000002300930090009B0B440093009B1A600E
:100A100008BD0A460021816821F4702111438160DC
:100A200070470A460021816821F44011114381601A
:100A30007047816841F48001816070470146002061
:100A40008A6802F480020AB1012000E000207047A9
:100A500021B1426842F48062426003E0426822F4BD
:100A600080624260704721B1426842F48052426025
:100A700003E0426822F480524260704708B50246A3
:100A800000200090009201F12800009B1844009083
:100A90000098006880B208BD10B50B460021D9B29D
:100AA000012404FA01F11AB144680C43446002E0E5
:100AB00044688C43446010BDFFFEFFFCFDF7FFC09F
:100AC00004230140E030FCFF00200140FFFD3FFF18
:100AD0000246002013680B400BB1012000E000200B
:100AE0007047CA430260704770B502460020002379
:100AF00000240B12556801268E4005EA060415688D
:100B00001D4015B10CB1012000E0002070BD002295
:100B10000A12D34303607047016821F001010160AC
:100B20000021016041608160C1600161212141615A
:100B3000DB49884204D13D21D94A103A91608CE0CA
:100B4000D7491831884205D14FF47461D44A103A1C
:100B5000916082E0D2493031884205D14FF474115E
:100B6000CF4A103A916078E0CD494831884205D1AA
:100B70004FF07461CA4A103A91606EE0C849603122
:100B8000884204D1C749C64A103AD16065E0C449D9
:100B90007831884204D1C449C14A103AD1605CE03E
:100BA000BF499031884204D1C049BD4A103AD16052
:100BB00053E0BB49A831884205D14FF03D51B84AB6
:100BC000103AD16049E0BA49884204D13D21B84A7F
:100BD000083A116041E0B6491831884205D14FF416
:100BE0007461B34A083A116037E0B1493031884244
:100BF00005D14FF47411AE4A083A11602DE0AC49AA
:100C00004831884205D14FF07461A94A083A116011
:100C100023E0A7496031884204D1A249A44A121FA7
:100C200011601AE0A2497831884204D19E49A04A55
:100C3000121F116011E09E499031884204D19B49F6
:100C40009B4A121F116008E09949A831884204D1DB
:100C50004FF03D51964A121F1160704710B50022A7
:100C60000268944B1A40CC680B6823434C692343B9
:100C70008C692343CC6923430C6A23434C6A234386
:100C80008C6A23434C6B23438C6B23431A430260CF
:100C9000426922F00702D1E90B3423431A4342612F
:100CA0000B6943604B6883608B68C36010BD002193
:100CB000016041608160C160016141618161C16128
:100CC000016241628162C162016341638163704775
:100CD00021B1026842F00102026003E0026822F0E2
:100CE00001020260704721B1026842F400420260D2
:100CF00003E0026822F400420260704721B10268FA
:100D000042F02002026003E0026822F0200202604A
:100D10007047416070470146486880B2704722B111
:100D2000036843F40023036003E0036823F4002313
:100D300003600161704721B1026842F480220260C1
:100D400003E0026822F48022026070470AB1016168
:100D500000E0C1607047014600200A6802F40022EA
:100D60000AB1012000E000207047014600200A6817
:100D700002F001020AB1012000E0002070470146A4
:100D800000204A6902F03800704730B503460A4631
:100D900000200024464DAB4202D24149103901E007
:100DA0004349103902F000550DB14C6800E00C6861
:100DB000414D2C4004EA02050DB1012000E0002065
:100DC00030BD02463A4B9A4202D23548103801E013
:100DD0003748103801F000531BB1374B0B40C3604C
:100DE00002E0354B0B408360704710B501F0800383
:100DF0004BB122B1436943F08003436103E043698F
:100E000023F08003436180290BD02AB1036801F0ED
:100E10001E042343036004E0036801F01E04A3439F
:100E2000036010BD70B50246002000240025204E4E
:100E3000B24202D21A4B103B01E01D4B103B1F4E39
:100E40000E4036B11E2606EAD124166806EA0405CD
:100E500002E0566906F0800501F000560EB15C68AC
:100E600000E01C68144E344004EA010616B10DB1CE
:100E7000012000E0002070BD02460D4B9A4202D2D4
:100E80000748103801E00A48103801F000531BB140
:100E9000094B0B40C36002E0074B0B408360704777
:100EA000106002403D000020400F002000003D2067
:100EB000106402403F801CF07D0F7D0F3C0F3C0F03
:100EC00010B504469848844208D10121084600F034
:100ED000B2FD0021012000F0AEFD76E0934884428F
:100EE00008D10121022000F0A6FD0021022000F01F
:100EF000A2FD6AE08E48844208D10121042000F05E
:100F00009AFD0021042000F096FD5EE089488442AD
:100F100008D10121082000F08EFD0021082000F0FA
:100F20008AFD52E08448844208D10121102000F05B
:100F300082FD0021102000F07EFD46E07F488442C3
:100F400008D10121202000F076FD0021202000F0B2
:100F500072FD3AE07A48844208D10121402000F035
:100F60006AFD0021402000F066FD2EE075488442B5
:100F700008D10121802000F05EFD0021802000F0DA
:100F80005AFD22E07048844208D10121801500F00A
:100F900052FD0021A01500F04EFD16E06B48844282
:100FA00008D10121401500F046FD0021601500F038
:100FB00042FD0AE06648844207D10121001500F095
:100FC0003AFD0021201500F036FD10BDF0B50A46AF
:100FD00000210023002400BF3DE0012505FA01F3B4
:100FE000156805EA03049C4234D105684F000326C6
:100FF000BE40B543056015794E00B54006683543DF
:1010000005601579012D02D01579022D16D185685C
:101010004F000326BE40B543856055794E00B5406C
:10102000866835438560456801268E40B543456036
:10103000456896798E40B6B235434560C5684F0025
:101040000326BE40B543C560D5794E00B540C6689D
:101050003543C560491C1029BFD3F0BD4FF6FF7161
:1010600001600021017141718171C171704708B542
:101070004FF480320092009A0A430092009AC261B3
:10108000C161009AC261C2690092C269009208BD42
:101090000246002013690B400BB1012000E0002044
:1010A00070470146086980B27047024600205369C4
:1010B0000B400BB1012000E0002070470146486959
:1010C00080B2704701837047418370470AB1018342
:1010D00000E0418370474161704742694A40426184
:1010E0007047F0B5002300244D07ED0E02FA05F31A
:1010F000CE1000F1200555F826504E07F70E0F26AA
:10110000BE40B543CF1000F1200646F82750CE1060
:1011100000F1200555F8265045EA0304CE1000F1F1
:10112000200545F82640F0BD0000024000040240C2
:1011300000080240000C024000100240001402406F
:1011400000180240001C024000200240002402401F
:101150000028024010B50446F848844209D1012114
:10116000480500F09BFC00214FF4001000F096FCB5
:1011700018E0F348844209D10121880500F08EFC73
:1011800000214FF4800000F089FC0BE0ED48844220
:1011900008D10121C80500F081FC00214FF40000B6
:1011A00000F07CFC10BD2DE9FF4704460D460026EB
:1011B000B1460427DFF89083A6884FF6C07006403A
:1011C000684600F0FCFADDF80880E048B8FBF0F073
:1011D0001FFA80F946EA0906A68020884FF6FE71BC
:1011E000084020800026DA49286888420CD8286800
:1011F0004000B8FBF0F087B2042F00DA04273E432A
:1012000009F10100208427E0E8884BF6FF7188424D
:1012100006D1286800EB4000B8FBF0F087B209E087
:10122000286800EBC00101EB0010B8FBF0F087B2BA
:1012300047F48047C7F30B0008B947F0010747F4AC
:10124000004006434FF4967009FB00F04FF47A71AA
:1012500090FBF1F0401C2084A683208840F0010020
:10126000208026884FF6F5300640A8886989084313
:1012700006432680A889298908432081BDE8FF8785
:1012800041F288310160002181804BF6FF71C180FD
:101290000021018141814FF480418181704721B15A
:1012A000028842F00102028004E002884FF6FE73D9
:1012B0001A400280704729B1828C4FF6EF731A40B2
:1012C000828403E0828C42F01002828470470A46D6
:1012D0000021818C4FF6F073194002F00F0319437F
:1012E0008184704721B1028842F48072028004E058
:1012F00002884FF6FF631A400280704721B10288CE
:1013000042F40072028004E002884FF6FF531A4054
:101310000280704712B141F0010101E001F0FE01CD
:101320000182704721B1028842F48062028004E0A9
:1013300002884FF6FF331A40028070470A460021A8
:1013400081894FF60173194002F0FE031943818130
:10135000704721B1828942F00102828104E08289D2
:101360004FF6FE731A408281704721B1028842F025
:101370004002028004E002884FF6BF731A400280E8
:10138000704721B1028842F40042028003E00288E3
:10139000C2F30E020280704721B9028842F0800237
:1013A000028004E002884FF67F731A400280704783
:1013B000B1F5804F05D0828B4BF6FF731A408283C4
:1013C00003E0828B42F4804282837047B1F5006F64
:1013D00004D1028842F40062028004E002884FF2E5
:1013E000FF731A4002807047B1F5005F04D1028894
:1013F00042F40052028004E002884DF6FF731A4066
:101400000280704721B1028842F01002028004E09D
:1014100002884FF6EF731A400280704701827047CE
:101420000146088AC0B2704721B1028842F4805256
:10143000028004E002884EF6FF731A400280704773
:10144000B1F5006F04D1028842F40062028004E02A
:1014500002884FF2FF731A400280704721B1028860
:1014600042F02002028004E002884FF6DF731A4047
:10147000028070470146088B0012704721B18288B4
:1014800042F40062828004E082884FF2FF731A40C7
:101490008280704721B1828842F48052828004E0C9
:1014A00082884EF6FF731A408280704708B5024664
:1014B0000020009000920098084400900098008856
:1014C00008BD1AB183880B43838002E083888B4375
:1014D0008380704770B50246002400250023002059
:1014E000958A138B1B0445EA030626F07F4404EA21
:1014F00001068E4201D1012000E0002070BD10B530
:1015000001460020002300228B8A0A8B120443EA42
:10151000020424F07F4010BD0CB5024600200023D9
:101520000193009300920B0F019321F07F41019BE7
:1015300083B1009B1433009310E00000005400407E
:1015400000580040005C004000127A0040420F004A
:10155000A0860100090C009B18330093009B1B68B8
:101560000B400BB1012000E000200CBD002221F057
:101570007F42D3438382704730B502460020002368
:10158000948801F0E06504EA154321F07F41948AD4
:101590000C4014B10BB1012000E0002030BD00224E
:1015A00021F07F42D343838270470000F9480068EE
:1015B00040F00100F74908600020F6490831086052
:1015C000F4480068F4490840F2490860F348091DEE
:1015D0000860F348EF4984310860F0481038091D6D
:1015E0000860EC48006820F48020EA490860002088
:1015F000E8490C310860E7498C31086070470021E8
:10160000E44A921C117011460870704710B50146EB
:101610000022002300204A11012A02D1DD4C236858
:1016200008E0022A03D1DB4C7034236802E0D94C75
:101630007434236801F01F02012494401C400CB153
:10164000012000E0002010BD38B5002000900024EB
:10165000002500BF3120FFF7D9FF05460098401C48
:1016600000900098B0F5A04F01D0002DF2D03120AD
:10167000FFF7CCFF08B1012400E00024204638BD6C
:1016800001460020C34A106820F0F80040EAC1007B
:1016900010607047C349086070470021BD4A70322E
:1016A00011701170012802D004280AD104E0012130
:1016B000B84A7032117005E00521B64A70321170D7
:1016C00000E000BF00BF7047B7490860704770B5C1
:1016D000049C41EA82150126C6EB530645EA0645FD
:1016E000054345EA0465AB4E361D356070BDAD4916
:1016F00008667047820142EA0172A64B84331A6081
:101700007047A8498866704710B5830143EA0163B2
:1017100043EA02739F4C8834236010BDA1490867D7
:101720007047A049C864704702460020994B0833AF
:10173000186820F0EC6042EA01031843954B083327
:101740001860704702460020924B0833186820F05A
:10175000784042EA010318438E4B08331860704703
:10176000014600208B4A0832106820F0030008432D
:101770001060704787480830006800F00C00704720
:1017800001460020834A0832106820F0F000084328
:1017900010607047014600207E4A0832106820F42D
:1017A000E05008431060704701460020794A083233
:1017B000106820F4604040EAC10010607047F0B546
:1017C000002100220024022500260223714F083741
:1017D0003F6807F00C0121B1042905D0082937D151
:1017E00005E0724F076036E0714F076033E0694FE4
:1017F0003F1D3F68C7F38056664F3F1D3F6807F0A7
:101800003F036EB16A4FB7FBF3F7DFF888C10CF105
:10181000040CDCF800C0CCF3881C07FB0CF40CE0D3
:10182000624FB7FBF3F7DFF86CC10CF1040CDCF886
:1018300000C0CCF3881C07FB0CF4564F3F1D3F68DB
:10184000C7F301477F1C7D00B4FBF5F7076002E09A
:10185000564F076000BF00BF4E4F08373F6807F084
:10186000F0010909534F7A5C0768D7404760494F38
:1018700008373F6807F4E051890A4E4F7A5C4768A1
:10188000D7408760434F08373F6807F46041490BF2
:10189000484F7A5C4768D740C760F0BD002100F42C
:1018A0004072B2F5407F0AD13A4A0832116821F4F9
:1018B000F811414A02401143364A08321160354A54
:1018C00070321268C0F30B031A43324B70331A6044
:1018D00070473549443908607047334940390860DA
:1018E000704736490860704701460020294A8C320B
:1018F000106820F01F004A1E1043264A8C321060E8
:10190000704701460020234A8C32106820F4F850BA
:101910004A1E40EA02201F4A8C321060704701467E
:1019200000201C4A8C32106820F4401008431060DC
:10193000704701460020174A8C32106820F440009E
:1019400008431060704701460020124A8C3210682C
:1019500020F4403008431060704719490860704710
:1019600039B10C4A3032126802430A4B30331A60E4
:1019700006E0084A303212688243064B30331A6060
:101980007047F9B1034A343212680243014B3433D1
:101990001A601CE000380240FFFFF6EA1030002415
:1019A0000030002000004742800E47420024F4002F
:1019B00000127A0014000020FFFCFF0F5C01474278
:1019C000E01147428F4A126882438E4B1A6070477B
:1019D00039B18C4A121D126802438A4B1B1D1A60D2
:1019E00006E0884A121D12688243864B1B1D1A604E
:1019F000704739B1834A0C3212680243814B0C3371
:101A00001A6006E07F4A0C32126882437D4B0C3329
:101A10001A60704739B17B4A103212680243794B21
:101A200010331A6006E0774A103212688243754B11
:101A300010331A60704739B1724A243A126802436F
:101A4000704B243B1A6006E06E4A243A12688243C7
:101A50006C4B243B1A60704739B16A4A203A1268CD
:101A60000243684B203B1A6006E0664A203A12683F
:101A70008243644B203B1A60704739B1614A1C3A7B
:101A8000126802435F4B1C3B1A6006E05D4A1C3A39
:101A9000126882435B4B1C3B1A60704739B1594A4C
:101AA000143A12680243574B143B1A6006E0554A39
:101AB000143A12688243534B143B1A60704739B191
:101AC000504A103A126802434E4B103B1A6006E02F
:101AD0004C4A103A126882434A4B103B1A607047D6
:101AE00039B1484A1C3212680243464B1C331A6013
:101AF00006E0444A1C3212688243424B1C331A608F
:101B0000704739B13F4A2032126802433D4B2033BF
:101B10001A6006E03B4A203212688243394B203378
:101B20001A60704739B1374A243212680243354B84
:101B300024331A6006E0334A243212688243314B60
:101B400024331A60704739B12E4A2C32126802438E
:101B50002C4B2C331A6006E02A4A2C32126882433E
:101B6000284B2C331A60704739B1264A303212683C
:101B70000243244B30331A6006E0224A30321268A6
:101B80008243204B30331A607047012808D11D4929
:101B90003C31096841F008011A4A3C32116007E003
:101BA00018493C31096821F00801164A3C3211609D
:101BB000704739B1134A273A12780243114B273B39
:101BC0001A7006E00F4A273A127882430D4B273BE2
:101BD0001A7070470B484030006840F08070094927
:101BE00040310860704701460020064A283A1268D2
:101BF0000A400AB1012000E000207047014926395F
:101C0000087070473438024010B50446FE488442DC
:101C100008D101210846FFF752FF00210120FFF7FC
:101C20004EFF9DE0B4F1804F08D101210846FFF737
:101C300035FF00210120FFF731FF91E0F348844296
:101C400008D101210220FFF729FF00210220FFF720
:101C500025FF85E0EE48844208D101210420FFF7EA
:101C60001DFF00210420FFF719FF79E0E9488442B5
:101C700008D101210820FFF711FF00210820FFF7FC
:101C80000DFF6DE0E448844208D101211020FFF7E8
:101C900005FF00211020FFF701FF61E0DF488442CB
:101CA00008D101212020FFF7F9FE00212020FFF7B5
:101CB000F5FE55E0DA48844208D101210220FFF701
:101CC000FEFE00210220FFF7FAFE49E0D5488442DB
:101CD00009D101210804FFF7F2FE00214FF4803002
:101CE000FFF7EDFE3CE0D048844209D101214804D1
:101CF000FFF7E5FE00214FF40030FFF7E0FE2FE094
:101D0000CA48844209D101218804FFF7D8FE002186
:101D10004FF48020FFF7D3FE22E0C548844208D16B
:101D200001214020FFF7BAFE00214020FFF7B6FE58
:101D300016E0C048844208D101218020FFF7AEFEA2
:101D400000218020FFF7AAFE0AE0BB48844207D1A9
:101D500001218015FFF7A2FE0021A015FFF79EFECE
:101D600010BD00220288A84B98420ED0AC4B98427E
:101D70000BD0B0F1804F08D0A44B984205D0A44BB3
:101D8000984202D0A34B984204D14FF68F731A4069
:101D90004B881A43A04B984207D0A04B984204D0DE
:101DA0004FF6FF431A400B891A4302804B68C36207
:101DB0000B880385944B984202D0994B984201D1ED
:101DC0008B7A03860123838270474FF0FF31416095
:101DD00000210180018141808172704701858282EA
:101DE00070470A46002101884FF68F73194011434E
:101DF0000180704741627047C16270470146486A7E
:101E000070470146088D704721B1028842F00202F6
:101E1000028004E002884FF6FD731A40028070478A
:101E200021B1028842F00402028004E002884FF6E9
:101E3000FB731A400280704721B1028842F0800291
:101E4000028004E002884FF67F731A4002807047D8
:101E500002884FF6F7731A40028002880A43028014
:101E6000704702884FF6FF431A40028002880A43F7
:101E70000280704721B1028842F00102028004E032
:101E800002884FF6FE731A400280704770B5002436
:101E900000220023058C4FF6FE7635400584028C27
:101EA0008388048B4FF68F752C40B51E2C400D880F
:101EB0002C43751E2A408D892A434D882A43524D52
:101EC000A84202D0564DA84213D14FF6F7752A40CA
:101ED000CD892A434FF6FB752A408D882A434FF659
:101EE000FF652B404FF6FF552B400D8A2B434D8A43
:101EF0002B43838004838D684563028470BD70B575
:101F0000002400220023058C4FF6EF76354005842F
:101F1000028C8388048B48F6FF752C404FF6FF45F2
:101F20002C400D884FF6FF7606EA05252C434FF628
:101F3000DF752A408D8906EA05152A434D8806EA91
:101F400005152A43304DA84202D0354DA8421DD177
:101F50004FF67F752A40CD894FF6FF7606EA0515C4
:101F60002A434FF6BF752A408D8806EA05152A4395
:101F70004FF6FF352B404FF2FF752B400D8A06EAD6
:101F800085052B434D8A06EA85052B438380048310
:101F90008D688563028470BD70B500240022002323
:101FA000058C4FF6FF6635400584028C8388848B50
:101FB0004FF68F752C404FF6FC752C400D882C4346
:101FC0004FF6FF552A408D894FF6FF7606EA052524
:101FD0002A434D8806EA05252A430B4DA84202D024
:101FE0000F4DA84238D14FF2FF752A40CD894FF6E8
:101FF000FF7606EA05252A434FF6FF352A408D88ED
:1020000006EA05252A4319E00000014000040040CB
:1020100000080040000C0040001000400014004088
:1020200000040140004001400044014000480140DC
:1020300000180040001C0040002000404EF6FF75D4
:102040002B404DF6FF752B400D8A06EA05152B43F4
:102050004D8A06EA05152B43838084838D68C5630A
:10206000028470BD70B5002200230024058C4EF65A
:10207000FF7635400584038C8488828B48F6FF7593
:102080002A404FF6FF452A400D884FF6FF7606EAB4
:1020900005252A434DF6FF752B408D8906EA053547
:1020A0002B434D8806EA05352B43FE4DA84202D04E
:1020B000FD4DA84208D14BF6FF752C400D8A4FF616
:1020C000FF7606EA85152C43848082838D6805643B
:1020D000038470BD00210180418081808160818105
:1020E000C18101824182704770B5034600200024FF
:1020F0001846183001258D40ACB21D8CA5431D84B7
:1021000009B108290AD100EB610005684FF68F7606
:10211000354005600568154305600FE00D1FC5F3E8
:102120004E052844056848F6FF7635400560056889
:102130004FF6FF7606EA02263543056070BD41631F
:10214000704781637047C1637047016470470A46F6
:102150000021018B4FF68F731940114301837047A3
:102160000A460021018B48F6FF7319404FF6FF73B2
:1021700003EA02231943018370470A460021818B39
:102180004FF68F7319401143818370470A4600212F
:10219000818B48F6FF7319404FF6FF7303EA022361
:1021A0001943818370470A460021018B4FF6F7736C
:1021B00019401143018370470A460021018B4FF2F9
:1021C000FF7319404FF6FF7303EA0223194301839B
:1021D00070470A460021818B4FF6F773194011436F
:1021E000818370470A460021818B4FF2FF731940AB
:1021F0004FF6FF7303EA02231943818370470A46AF
:102200000021018B4FF6FB73194011430183704786
:102210000A460021018B4FF6FF3319404FF6FF733A
:1022200003EA02231943018370470A460021818B88
:102230004FF6FB7319401143818370470A46002112
:10224000818B4FF6FF3319404FF6FF7303EA0223E9
:102250001943818370470A460021018B4FF67F7333
:1022600019401143018370470A460021018BC1F3D5
:102270000E014FF6FF7303EA0223194301837047EF
:102280000A460021818B4FF67F73194011438183E9
:1022900070470A460021818BC1F30E014FF6FF7390
:1022A00003EA02231943818370470A460021018C07
:1022B0004FF6FD7319401143018470470A4600210F
:1022C000018C4FF6F77319401143018470470A4699
:1022D0000021018C4FF6DF7319404FF6FF7303EABC
:1022E00002131943018470470A460021018C4FF6FE
:1022F0007F7319404FF6FF7303EA021319430184F9
:1023000070470A460021018C4FF6FF5319404FF6E3
:10231000FF7303EA02231943018470470A46002130
:10232000018C4FF2FF7319404FF6FF7303EA02234B
:102330001943018470470A460021018C4DF6FF7352
:1023400019404FF6FF7303EA0233194301847047C3
:1023500030B5002301248C40A3B2048C9C43048438
:10236000048C02FA01F5ADB22C43048430BD30B5C3
:10237000002304248C40A3B2048C9C430484048C6A
:1023800002FA01F5ADB22C43048430BD828B4FF2CA
:10239000FF331A408283828B4FF6FF7303EA0123D7
:1023A0001A4382837047F0B50C461546002100227F
:1023B0000026078C4EF6FF7C07EA0C070784818B0A
:1023C000028C4FF6FF7707EA043640F6FF473940A4
:1023D0004FF6FF7707EA052739434FF6FF7707EAFD
:1023E0000337394345F6FF773A4046F480573A437E
:1023F00081830284F0BD828B4FF6F3731A4082838F
:10240000828B0A4382837047F0B50C461546002143
:1024100000220026078C4FF6FF6C07EA0C070784A2
:10242000818B028C4FF6FF7707EA04264FF60C7774
:1024300039404FF6FF7707EA03172F4339434FF22E
:10244000FF573A4046F480773A4381830284F0BDD7
:10245000028B4FF2FF331A400283028B4FF6FF7359
:1024600003EA01231A4302837047F0B50C46154670
:10247000002100220026078C4FF6EF7C07EA0C07AC
:102480000784018B028C4FF6FF7707EA041640F6AB
:10249000FF4739404FF6FF7707EA033739434FF6D6
:1024A000FF7703E0000001400004014007EA052730
:1024B00039434FF65F773A4046F010073A430183BD
:1024C0000284F0BD028B4FF6F3731A400283028B35
:1024D0000A4302837047F0B50C46154600210022DE
:1024E000068C4FF6FE773E400684018B028C4FF639
:1024F0000C7631407E1C06EA03162E4331434FF61C
:10250000F576324044F00106324301830284F0BD87
:1025100070B505460C46208850B92389A288618889
:102520002846FFF7D8FFE1882846FFF7CBFF25E0D4
:10253000208804280AD12389A28861882846FFF7C9
:1025400094FFE1882846FFF783FF17E020880828DA
:102550000AD12389A28861882846FFF755FFE188C0
:102560002846FFF748FF09E02389A28861882846AA
:10257000FFF719FFE1882846FFF708FF70BD00212B
:1025800001804180012181800021C180018170474B
:102590002DE9F04105460C4600260127608808B960
:1025A000022600E00026A088012801D1022700E0D1
:1025B00001272088A0B92389A28861882846FFF7CF
:1025C0008AFFE1882846FFF77DFF23893A46314696
:1025D0002846FFF74AFFE1882846FFF739FF13E056
:1025E0002389A28861882846FFF73FFFE1882846B3
:1025F000FFF72EFF23893A4631462846FFF76BFF47
:10260000E1882846FFF75EFFBDE8F0810146486B90
:1026100070470146886B70470146C86B704701469A
:10262000086C70470A884B881A438B881A43CB88FA
:102630001A430B891A434B891A438B891A43A0F812
:10264000442070470021018041808180C180018148
:1026500041818181704731B1B0F8442042F4004299
:10266000A0F8442005E0B0F84420C2F30E02A0F820
:102670004420704721B1828842F00402828004E045
:1026800082884FF6FB731A408280704721B182889E
:1026900042F00102828004E082884FF6FE731A4005
:1026A000828070471AB183890B43838102E083895A
:1026B0008B43838170478182704702460020138AD2
:1026C0000B400BB1012000E000207047CA4302829A
:1026D000704730B50246002000230024158A05EA21
:1026E0000103958905EA010413B10CB1012000E052
:1026F000002030BDCA430282704741EA0203A0F8BD
:10270000483070471AB183890B43838102E0838983
:102710008B438381704721B1828842F00802828016
:1027200004E082884FF6F7731A408280704701896F
:102730004FF6F8721140018170470A460021018965
:102740004FF68F73194011430181704730B504462D
:102750000D4629462046FFF7F0FF208940F007008C
:10276000208130BD2DE9F04104460D4616461F4636
:10277000602D06D13B46012231462046FFF775FE0B
:1027800005E03B46012231462046FFF7A4FE2946DC
:102790002046FFF7D2FF208940F007002081BDE8E6
:1027A000F08130B50C4600210189C9B24FF6FF75A2
:1027B00005EA0325154325432943018130BD2DE951
:1027C000F04105460E4617469846002443463A46D1
:1027D00031462846FFF7E5FF2C894FF6F870044094
:1027E00044F007044FF68F70044044F070042C81CD
:1027F000BDE8F081F0B504460D4616461F463B463F
:10280000324629462046FFF7CCFF208940F480401D
:102810002081F0BD82884FF68F731A4082808288B3
:102820000A438280704702894FF6F8731A4002818A
:1028300002890A430281704702894FF67F731A406A
:10284000028102890A4302817047F0B50C461546A1
:102850001E460021002200230189028B038C4FF6C3
:10286000F877394021434FF6FC473A4040F20117D0
:102870003A434FF6DD773B404FF6FF7707EA0617FE
:102880002F433B43018102830384F0BD21B1828841
:1028900042F08002828004E082884FF67F731A4003
:1028A00082807047A0F850107047000010B50446B1
:1028B000FA48844208D101211020FFF700F90021D5
:1028C0001020FFF7FCF857E0F548844209D10121B8
:1028D0004804FFF7E3F800214FF40030FFF7DEF87B
:1028E0004AE0F048844209D101218804FFF7D6F874
:1028F00000214FF48020FFF7D1F83DE0EA48844200
:1029000009D10121C804FFF7C9F800214FF40020C4
:10291000FFF7C4F830E0E548844209D101210805F9
:10292000FFF7BCF800214FF48010FFF7B7F823E061
:10293000DF48844208D101212020FFF7C0F80021A0
:102940002020FFF7BCF817E0DA48844209D10121C2
:102950008807FFF7A3F800214FF08040FFF79EF8AB
:102960000AE0D548844207D101214005FFF796F8D7
:1029700000216005FFF792F810BD2DE9FF470546DD
:102980000E460024A14600BFA046B08900B100BF9A
:102990002C8A24F44054F08804432C82AC8941F200
:1029A0000C608443B088318908437189084304432B
:1029B000AC81AC8A24F44074B0890443AC8268468C
:1029C000FEF7FDFEB548854202D0B948854202D1E6
:1029D000DDF80C9001E0DDF80890A88900F40040D3
:1029E00040B109EBC90000EB091031684900B0FBA8
:1029F000F1F707E009EBC90000EB09103168890025
:102A0000B0FBF1F76420B7FBF0F00401200964216A
:102A100001FB1078A88900F4004040B1322000EB9F
:102A2000C800B0FBF1F000F00700044308E03220DA
:102A300000EB08106421B0FBF1F000F00F0004433C
:102A40002C81BDE8FF874FF4165101600021818081
:102A5000C18001810C21418100218181704710B525
:102A600002460020108A20F470600B884C882343B3
:102A70008C882343CC8823431843108210BD002147
:102A8000018041808180C180704721B1828942F4F8
:102A90000052828104E082894DF6FF731A408281E0
:102AA0007047028B02F47F420283028B0A43028347
:102AB000704721B1828942F40042828103E0828919
:102AC000C2F30E028281704721B1828A42F4006211
:102AD000828204E0828A4FF2FF731A40828270473A
:102AE000C1F308028280704701468888C0F308005D
:102AF0007047028A4FF6F0731A400282028A0A4334
:102B00000282704721B1828942F00202828104E090
:102B100082894FF6FD731A408281704782894FF295
:102B2000FF731A40828182890A4382817047028A38
:102B30004FF6DF731A400282028A0A43028270470C
:102B400021B1028A42F48042028204E0028A4BF6FA
:102B5000FF731A4002827047818941F0010181812F
:102B6000704721B1828A42F00802828204E0828AA0
:102B70004FF6F7731A4082827047028BD2B20283FB
:102B8000028B42EA01220283704721B1828A42F01D
:102B90002002828204E0828A4FF6DF731A4082822A
:102BA000704721B1828A42F01002828204E0828A58
:102BB0004FF6EF731A4082827047828A4FF6FB739A
:102BC0001A408282828A0A438282704721B1828AB5
:102BD00042F00202828204E0828A4FF6FD731A40BC
:102BE000828270471AB1838A0B43838202E0838A10
:102BF0008B4383827047F0B50346002400260025EE
:102C0000002040F66A17B94200D100BF1846C1F350
:102C1000421401F01F06012707FA06F5012C01D125
:102C20000C3004E0022C01D1103000E014301AB155
:102C300007682F43076002E00768AF430760F0BDF5
:102C400002460020B1F5007F00D100BF13880B4081
:102C50000BB1012000E00020704701F40072B2F5D2
:102C6000007F00D100BFCA430280704770B50246A2
:102C7000002400230025002040F66A16B14200D14E
:102C800000BFC1F3421501F01F03012606FA03F34A
:102C9000012D13D19689334017E000000010014048
:102CA0000044004000480040004C004000500040FC
:102CB0000014014000780040007C0040022D02D149
:102CC000168A334001E0968A33400C12012606FA38
:102CD00004F41688344013B10CB1012000E0002048
:102CE00070BD10B50022002340F66A14A14200D145
:102CF00000BF0A1201249440A3B2DC43048010BD3B
:102D00000948804709480047FEE7FEE7FEE7FEE77F
:102D1000FEE7FEE7FEE7FEE7FEE7FEE704480549BB
:102D2000054A064B70470000A1040008890100080D
:102D3000A8030020A8090020A8050020A80500205D
:102D400010B504466FF00400FDF796FCE11704EBA4
:102D50005171C1F3C701394A11701046007800EB78
:102D60004001C1EBC0104FF6FF7101EAC0003449C9
:102D7000088010BD0146314A12784A434FF0E023E3
:102D80005A6100229A611A46126942F001021A61E0
:102D900000BF4FF0E022106900F001021AB100F408
:102DA0008032002AF5D04FF0E022126922F00102B1
:102DB0004FF0E0231A6100229A6170470146204AD1
:102DC00012884A434FF0E0235A6100229A611A4662
:102DD000126942F001021A6100BF4FF0E02210694F
:102DE00000F001021AB100F48032002AF5D04FF051
:102DF000E022126922F001024FF0E0231A61002262
:102E00009A61704770B504464FF4077094FBF0F078
:102E1000C6B24FF4077094FBF0F100FB114085B28D
:102E200005E04FF40770FFF7C9FF701EC6B2002E11
:102E3000F7D115B12846FFF7C1FF70BD240000206F
:102E400026000020014600BF704700BF4E4A12888E
:102E500002F04002002AF9D0C2B24B4B9A80704770
:102E600010B588B0044601210220FEF779FD01214A
:102E70001020FEF7CFFD072206214448FEF731F966
:102E8000072211464148FEF72CF9C0200690022087
:102E90008DF81C008DF81D0000208DF81E0001200B
:102EA0008DF81F0006A93948FEF790F8029400201B
:102EB000ADF80C00ADF80E00ADF81000ADF8140040
:102EC0000C20ADF8120002A92F48FFF756FD012192
:102ED0002D48FFF7DAFD40212B48FFF7BEFE012207
:102EE00040F225512848FFF786FE25208DF8040082
:102EF00003208DF805008DF8060001208DF80700ED
:102F000001A8FDF76CFB08B010BD10B540F22551CB
:102F10001D48FFF7ABFE20B31B48FFF7E5FDC4B229
:102F20001B4804701B48008800F40040C8B91948C9
:102F3000008800F4804060B10A2C03D000201549BD
:102F4000088020E01348008840F4004011490880C0
:102F500019E00D2C06D10F48008840F480400D493F
:102F6000088010E00B480088C0F30D000A490C549B
:102F700008480088401C0749088008460088C72880
:102F800001DD0020088010BD001001400004024057
:102F90002800002030000020BC0000207FB505463E
:102FA0000C4601210220FEF724FD0295ADF80440F5
:102FB0000020ADF80600ADF80C0001A92B48FEF783
:102FC000D0FE012211462948FFF76CFB012127485A
:102FD000FEF750FF1D208DF8000003208DF8010042
:102FE0008DF8020001208DF803006846FDF7F7FA1E
:102FF0007FBD10B501211D48FFF76BFB01211B4868
:10300000FFF778FB10BD1FB501211020FEF7F1FC82
:1030100036208DF80C0000208DF80D008DF80E0084
:1030200001208DF80F0003A8FDF7D9FA4CF25030BB
:1030300001900F4800680F49B0FBF1F0401E80B2CC
:10304000ADF800000020ADF80800ADF802006946B8
:103050000948FEF786FE012211460748FFF722FBCA
:1030600001210548FEF706FF1FBD000000040040D7
:103070000000002080841E000010004000B59BB0BE
:1030800001215F48FEF76CFC01210802FEF7C2FC3B
:10309000C020009003208DF8040000208DF8070068
:1030A00069465848FDF792FF0720009003208DF8ED
:1030B000040000208DF8070069465348FDF786FF9D
:1030C0000020029051480390514804900020059040
:1030D00006200690002007904FF480600890400082
:1030E000099080000A9040110B9040020C90002043
:1030F0000D9001200E9000200F90109002A94548DD
:10310000FDF7ACFD01214348FDF7E2FD00201190E1
:1031100012901390149011A8FDF706FB0020159053
:1031200001208DF858008DF8590000201790199053
:1031300006208DF8680015A934484C38FDF7C5FA0B
:10314000012132484C38FDF7E6FB062301221946DF
:103150002E484C38FDF73FFB0623022207212B485F
:103160004C38FDF738FB062303220A2127484C3848
:10317000FDF731FB062304220B2124484C38FDF7D0
:103180002AFB062305220C2120484C38FDF723FB9F
:1031900006231A4610211D484C38FDF71CFB012060
:1031A000FDF7F7FA012119484C38FDF7BFFB012163
:1031B00016484C38FDF7CFFA14484C38FDF767FB3A
:1031C0001BB000BD01EE100AB8EE411ADFED121A75
:1031D00021EE211ADFED111A81EE212AF0EE420ACA
:1031E0009FED0F1A30EEC11ADFED0E1A81EE212A83
:1031F000B3EE091A32EE011AB0EE410A7047000030
:103200000500400000000240000802404C20014040
:1032100084010020106402403333534000F07F45A6
:103220005C8F423F0AD7233B10B5044601201C495E
:10323000087300200861401E8861084600F013F9F9
:10324000204600F049F8FF2016490860002010BD14
:1032500070B504460D4612480069012010490873F4
:1032600000200861084600F0FEF80D4800F034F830
:10327000FF200C49086070BDFF210A4A116000213F
:10328000094A1160704770B506460024002501F018
:103290009FFEFF200349086000200349086070BDBD
:1032A00040000020A8000020B400002010B54FF41A
:1032B000A060FDF78FF910BD10B5002807DA0A07E6
:1032C000140EF74A00F00F031B1FD45403E00A0743
:1032D000130EF44A135410BD70B50446207B012828
:1032E00005D0207B102802D0207B00287ED1E078FA
:1032F000012803D110202073012070BD2078EA49F5
:1033000051F82000008820F001002178E64A52F8A8
:1033100021100880207801F098FB207801F03DFB17
:10332000E078022804D16178207801F033FC00BFF6
:10333000207801F01DFB207801F044FB2078DA4969
:1033400051F82000008840F001002178D64A52F858
:10335000211008802278D44B53F82200E169FDF750
:1033600022FF606900F4801060B12078CE4951F8E6
:103370002000008840F040002178CB4A52F821100C
:10338000088000BF207D00F0010028B32078C649E6
:1033900051F82000808940F001002178C24A52F89B
:1033A000211088812078114651F8200080894FF63D
:1033B00001710840217852F8211088812078114647
:1033C00051F820008089217D01F0FE010843217819
:1033D00052F82110888100BF606900F0804070B110
:1033E0002078B14951F82000008800E039E020F44D
:1033F00080602178AC4A52F82110088000BFE07844
:10340000022805D161782078626901F03BFB00BF9A
:10341000E37862782078616901F0D0FB01202073A5
:10342000A24800684FF47A71B0FBF1F5681EB0F164
:10343000807F00D30FE0681E4FF0E02148610F212C
:103440004FF0FF30FFF738FF00204FF0E021886198
:103450000720086100BF0021481EFFF72DFF002054
:103460004BE7012049E770B50446207B012804D0D2
:10347000207B102801D0207B48BB207801F0E5FAA2
:103480002078894951F82000008820F00100217837
:10349000854A52F821100880207801F07EFAE07801
:1034A000022804D16178207801F074FB00BFE37832
:1034B00062782078616901F01FFC00202073206190
:1034C000401EA06100204FF0E021086170BD012086
:1034D000FCE701467648774A1060002090804BF662
:1034E000FF70D080002010814FF480605081000177
:1034F000908103204870002088700220C87000204E
:1035000048608860087308614861401E8861104601
:10351000C8610020704770B504460D46E078012868
:1035200002D002286ED10DE020785F4951F82000CA
:10353000808840F4806021785B4A52F821108880AE
:10354000002070BD2078584951F82000808820F470
:1035500000702178544A52F8211088802078114652
:1035600051F82000808840F40060217852F8211042
:103570008880207B062801D0012D1DD1207862692A
:10358000616801F0BDFA2078474951F82000808831
:1035900020F480502178444A52F821108880207805
:1035A000454951F82000006840F001002178424A66
:1035B00052F82110086023E0207B0A2801D0022D58
:1035C0001ED120786269A16801F0BFFAA07858B9CD
:1035D0002078354951F82000808840F480502178C7
:1035E000314A52F8211088802078344951F820005F
:1035F000006840F001002178304A52F8211008603C
:1036000000209EE71020207301209AE710B50446A1
:103610004FF0FF30A06110202073FF202061204672
:10362000FFF702FE10BD10B50446207B00F002003B
:1036300028B9207B032802D0207B052801D1012056
:1036400010BD207B08B90120FAE7207B102801D1AA
:103650000120F5E702202073606900F0807078BBDC
:103660004FF48170A06100BF20780F4951F820000D
:10367000008B012121EA500038B9A069B0F5807FA4
:1036800003D0A069401C0028EED1A069B0F5807F6E
:1036900002D0A069401CA0B92046FFF7B7FFCFE7D2
:1036A00018ED00E000E400E06000002000000020D1
:1036B000A0860100900100208400002090000020DE
:1036C00002E04FF0FF30A061A078C8B92078FE4931
:1036D00051F82000008840F480702178FA4A52F8AE
:1036E00021100880606900F4803018B10121204663
:1036F000FFF711FF032020734FF48F70A06116E0D5
:10370000606900F0804058B12078EF4951F82000FE
:10371000008840F480602178EB4A52F8211008803C
:1037200001212046FFF7F7FE0320207300BF207819
:10373000E54951F82000808840F400702178E24A81
:1037400052F82110888000207AE710B50446207BCB
:1037500000F0020028B9207B032802D0207B052836
:1037600001D1012010BD207B08B90120FAE7207BA0
:10377000102801D10120F5E702202073606900F0D4
:10378000807010BB4FF48170A06100BF2078CE49DB
:1037900051F82000008B012121EA500038B9A069BE
:1037A000B0F5807F03D0A069401C0028EED1A0694D
:1037B000B0F5807F02D0A069401C18B92046FFF701
:1037C00025FFCFE74FF0FF30A061E078022809D154
:1037D000A0684068012805D1606940F4001060616C
:1037E0000120E070606900F4803000287ED1A0786C
:1037F0000028FBD12078B44951F82000008840F41B
:1038000080702178B04A52F8211008804FF48F70F0
:10381000A06100BF2078AC4951F82000808A00F0F8
:10382000010038B9A069B0F5807F03D0A069401CC1
:103830000028EFD1A069B0F5807F02D0A069401CBC
:1038400018B92046FFF7E2FE8CE74FF0FF30A06189
:10385000E0698089B0F5804F2AD1A068007A00F035
:10386000FE002178984A52F82110088240F2031095
:10387000A06100BF2078944951F82000808A00F0B0
:10388000020038B9A069B0F5807F03D0A069401C60
:103890000028EFD1A069B0F5807F02D0A069401C5C
:1038A00018B92046FFF7B2FE5CE74FF0FF30A06189
:1038B0002078854951F82000808A207851F820002E
:1038C000008B4FF48170A06100BF20787E4951F8D1
:1038D0002000808A00F0800038B9A069B0F5807FB0
:1038E00003D0A069401C0028EFD100E03BE0A069B4
:1038F000B0F5807F02D0A069401C18B92046FFF7C0
:1039000085FE2FE74FF0FF30A061606900F40030C2
:1039100040BBA068007B21786B4A52F821100882D6
:103920004FF48170A06100BF2078674951F82000F2
:10393000808A00F0800038B9A069B0F5807F03D09C
:10394000A069401C0028EFD1A069B0F5807F02D0AB
:10395000A069401C18B92046FFF758FE02E74FF057
:10396000FF30A06106E0E078022803D10221204662
:10397000FFF7D1FD05202073A07878B9207852494F
:1039800051F82000008840F4807021784E4A52F8A7
:10399000211008804FF48F70A06117E0606900F07B
:1039A000804058B12078484951F82000008840F400
:1039B00080602178444A52F821100880E07801287C
:1039C00003D102212046FFF7A6FD00BF20783E4923
:1039D00051F82000808840F4007021783A4A52F86B
:1039E000211088800020BDE638B504464FF6FF70F0
:1039F0000090022020732078334951F820008088FD
:103A000020F480702178304A52F821108880207884
:103A1000114651F82000008820F00100217852F86A
:103A2000211008802078114651F82000008840F0CD
:103A30000100217852F8211008802078114651F8B1
:103A40002000008840F48070217852F8211008800E
:103A50004FF48F70A06100BF20781B4951F82000FF
:103A6000808A00F0010038B9A069B0F5807F03D0EA
:103A7000A069401C0028EFD1A069B0F5807F02D07A
:103A8000A069401C18B92046FFF7C0FD38BD4FF0B3
:103A9000FF30A0616068007A00F0FE0021780A4AD9
:103AA00052F82110088200BF2178074A52F82110ED
:103AB000898A01F0020121B90098411E0091002875
:103AC000F2D1009820B901E0600000200120DDE77C
:103AD0004FF6FF302178FE4A52F821108882207874
:103AE000114651F82000008840F40070217852F807
:103AF0002110088000BF2078F54951F82000008B84
:103B000000F002000028F6D1207851F8200000884B
:103B100020F001002178EE4A52F821100880207828
:103B2000114651F82000008840F00100217852F839
:103B3000211008802078114651F82000008840F4B8
:103B40008060217852F8211008802078114651F8C1
:103B50002000808840F48070217852F821108880FD
:103B600001202073002091E710B504462078D84941
:103B700051F82000808A207851F82000008840F019
:103B800001002178D24A52F821100880606900F0C3
:103B9000804050B12078114651F82000008820F470
:103BA0008060217852F821100880E07801282ED01A
:103BB000207B0A282BD12078C54951F82000808825
:103BC00020F400602178C24A52F8211088802078C1
:103BD000C04951F82000006820F001002178BD4A5A
:103BE00052F8211008602078B94951F820008088E7
:103BF00020F400702178B64A52F82110888020788D
:103C0000B44951F820004068A168486000BF4FF4F3
:103C10008170A06100BF2078AD4951F82000008B71
:103C2000012121EA500038B9A069B0F5807F03D0A6
:103C3000A069401C0028EED1A069B0F5807F02D0B9
:103C4000A069401C18B92046FFF7E0FC10BD4FF0FA
:103C5000FF30A061207B0A2804D101202073204678
:103C6000FFF711FB0020F1E701460878984A52F867
:103C70002000008B00F0100000B100BF0878944ACB
:103C800052F82000008B00F0800000B100BF087BDC
:103C9000032802D10620087305E0087B052802D11D
:103CA0000A20087300BF0020704710B50446E07872
:103CB00001287DD1A068406803287AD8A0684068B0
:103CC00001280DD12078824951F82000008AA1688E
:103CD00009680870A0684068401EA168486000BF7D
:103CE000A0684068022859D12078794951F820000D
:103CF000808820F480602178754A52F821108880ED
:103D00004FF48270A06100BF2078714951F8200003
:103D1000808A00F0040038B9A069B0F5807F03D034
:103D2000A069401C0028EFD1A069B0F5807F02D0C7
:103D3000A069401C18B92046FFF768FC10BD4FF081
:103D4000FF30A0612078624951F82000008840F4DB
:103D5000007021785E4A52F82110088020781146C0
:103D600051F82000008AA16809680870A0680068FE
:103D7000401CA1680860A0684068401EA1684860B7
:103D80002078114651F82000008AA168096808705F
:103D9000A0684068401EA168486000BFA0684068F5
:103DA00003287DD120784A4951F82000808801E01D
:103DB0001CE19BE020F480602178454A52F82110F4
:103DC00088804FF48270A06100BF2078404951F88C
:103DD0002000808A00F0040038B9A069B0F5807F27
:103DE00003D0A069401C0028EFD1A069B0F5807F06
:103DF00002D0A069401C18B92046FFF707FC9DE7D8
:103E00004FF0FF30A0612078314951F82000008840
:103E100020F4806021782E4A52F821100880207802
:103E2000114651F82000008AA16809680870A0684E
:103E30000068401CA1680860A0684068401EA16836
:103E400048604FF48270A06100BF2078204951F88B
:103E50002000808A00F0040038B9A069B0F5807FA6
:103E600003D0A069401C0028EFD1A069B0F5807F85
:103E700002D0A069401C18B92046FFF7C7FB5DE7D8
:103E80004FF0FF30A0612078114951F820000088E0
:103E900040F4007021780E4A52F82110088000E0AA
:103EA00037E02078114651F82000008AA16809689F
:103EB0000870A0680068401CA1680860A06840689D
:103EC000401EA16848602078114651F8200003E0A8
:103ED0006000002090000020008AA1680968087036
:103EE000A0684068401EA168486012E02078FE4942
:103EF00051F82000008AA16809680870A06800686D
:103F0000401CA1680860A0684068401EA168486025
:103F100000BFA0684068002868D12078F24951F8B5
:103F20002000808820F400702178EF4A52F8211098
:103F300088802078114651F82000808820F4806025
:103F4000217852F8211088802078114651F82000FD
:103F5000808A207851F82000008A606900F40010FF
:103F600028B1606920F4001060610220E0704FF415
:103F70008170A06100BF2078DB4951F82000008BE0
:103F8000012121EA500038B9A069B0F5807F03D043
:103F9000A069401C0028EED1A069B0F5807F02D056
:103FA000A069401C18B92046FFF730FBC6E64FF069
:103FB000FF30A0612078CC4951F82000008840F4FF
:103FC00080602178C84A52F8211008802078114674
:103FD00051F82000008820F40060217852F8211068
:103FE0000880012020732046FFF74DF90020A5E648
:103FF00010B50446E078022803D04FF0FF30A061EE
:1040000014E0207B062805D16068406800F58070C8
:10401000A0610BE0207B0A2805D1A068406800F56C
:104020008070A06102E04FF0FF30A061207B0A2881
:104030001DD1E07801281AD1A0684068B8B920786D
:10404000A94951F82000008840F400702178A64A60
:1040500052F8211008802078114651F82000808AFB
:10406000207851F82000008B012020739CE0207BF9
:104070000A2806D1E078012803D102212046FFF763
:104080004AFA207B0A2823D1A068406801281FD162
:104090002078954951F82000008820F4806021782C
:1040A000914A52F8211008802078114651F82000DA
:1040B000808A207851F82000008B207851F8200069
:1040C000008840F40070217852F82110088033E015
:1040D000E078012827D1207B0A2824D1A0684068F5
:1040E000022820D12078804951F82000008820F44F
:1040F000806021787C4A52F821100880207811468F
:1041000051F82000008840F40060217852F8211016
:1041100008802078114651F82000808A207851F8D4
:104120002000008B08E020786F4951F82000808A39
:10413000207851F82000008B606900F4803098BB33
:10414000207B06282CD1606900F4003040BB6068F9
:10415000007B2178644A52F8211008824FF4817064
:10416000A06100BF2078604951F82000808A00F0EB
:10417000800038B9A069B0F5807F03D0A069401CE9
:104180000028EFD1A069B0F5807F02D0A069401C63
:1041900018B92046FFF73AFA10BD4FF0FF30A06182
:1041A00003212046FFF7B7F90020F5E701464FF05D
:1041B000FF308861C8698089B0F5804F1DD1087BC8
:1041C00005280BD18868007A40F001000A78464B38
:1041D00053F8222010820A2008730BE04868007A06
:1041E00000F0FE000A78404B53F82220108206208F
:1041F000087300BF40F2031088610020704738B593
:104200000446002000902078374951F82000808A29
:1042100000F0DF000090A078E8B9BDF8000000F0E1
:10422000010018B12046FFF7C1FF38BDBDF80000FE
:1042300000F0020018B12046FFF7DAFEF5E7BDF8FE
:10424000000000F0400030B1207B0A2803D1204656
:10425000FFF72BFDE9E7A078012811D1BDF8000098
:1042600000F0020018B12046FFF7FEFCDDE7BDF8C4
:10427000000000F0100018B12046FFF775FCD4E7ED
:104280000020D2E710B50446A078012810D160685C
:10429000406868B9207B012802D0207B062807D11E
:1042A0004FF2FF002178104A52F82110888259E01D
:1042B00020780D4951F82000808A00F47060206158
:1042C000102020734FF2FF002178074A52F8211086
:1042D0008882206900F48070D0B12078114651F8AE
:1042E0002000008802E000006000002040F4004050
:1042F000217852F8211008802078114651F82000CA
:10430000008820F40040217852F82110088000BF76
:10431000206900F40070B8B12078FD4951F8200000
:10432000008840F400402178F94A52F821100880B2
:104330002078114651F82000008820F400402178B0
:1043400052F82110088000BF206900F4006000B11D
:1043500000BF206900F4806000B100BF21692078AF
:10436000FEF776FF002010BD10B504464FF0FF3079
:10437000A0612078E74951F8200000F0005050B1CA
:104380002078E54951F8200040682178E14A52F848
:104390002110084009E02078DF4951F8200000682A
:1043A0002178DC4A52F82110084000287DD00020F6
:1043B00061684860A08A00F48040002876D1A07827
:1043C00000287FD12078D24951F82000808820F43D
:1043D00000602178CE4A52F8211088804FF4827014
:1043E000A06100BF2078CA4951F82000808A00F0FF
:1043F000040038B9A069B0F5807F03D0A069401CE3
:104400000028EFD1A069B0F5807F02D0A069401CE0
:1044100018B92046FFF7FAF810BD4FF0FF30A06141
:10442000606900F4000070BB2078B94951F82000A1
:10443000008840F400702178B54A52F821100880B5
:104440004FF48170A06100BF2078B14951F820007D
:10445000008B012121EA500038B9A069B0F5807FB6
:1044600003D0A069401C0028EED1A069B0F5807F80
:1044700002D0A069401C18B92046FFF7C7F8CBE767
:104480004FF0FF30A0612078A44951F82000006867
:1044900020F001002178A14A52F82110086020780C
:1044A0009B4951F82000808802E058E053E009E081
:1044B00020F400702178964A52F82110888001205B
:1044C000207348E02078924951F82000808820F439
:1044D000006021788E4A52F82110888020788F4918
:1044E00051F82000006820F0010021788B4A52F832
:1044F000211008602078864951F82000808820F437
:1045000000702178824A52F8211088804FF481701F
:10451000A06100BF20787E4951F82000008B012166
:1045200021EA500038B9A069B0F5807F03D0A069B6
:10453000401C0028EED1A069B0F5807F02D0A069B0
:10454000401C18B92046FFF761F865E74FF0FF30CF
:10455000A061012020732046FEF78EFE44E0207803
:104560006F4951F8200000F0005050B120786A499E
:1045700051F8200040682178694A52F8211008401B
:1045800009E02078644951F8200000682178644AE5
:1045900052F82110084000B126E02078614951F816
:1045A000200000F0005050B120785B4951F8200005
:1045B000406821785B4A52F82110084009E02078D1
:1045C000554951F8200000682178564A52F82110C8
:1045D000084048B1102020732078504951F820003D
:1045E00040686168486000BF20784A4951F820005F
:1045F00000F0005090B1207851F820002178484A0E
:1046000052F8211008432178464A52F821100843F5
:104610002178414A52F82110C86012E020783D49C3
:1046200051F8200021783E4A52F8211008432178A1
:104630003C4A52F8211008432178374A52F8211099
:1046400088600020E8E610B504464FF0FF30A06116
:104650002078354951F8200000F0005050B1207802
:104660002D4951F82000406821782F4A52F8211036
:10467000084009E02078284951F820000068217896
:10468000294A52F82110084000287BD00020A16858
:104690004860A08A00F40040002874D1A078002867
:1046A00073D120781A4951F82000008840F4007036
:1046B0002178174A52F8211008802078114651F8C5
:1046C0002000808820F40060217852F82110888032
:1046D0004FF48170A06100BF20780D4951F820008F
:1046E000008B012121EA500038B9A069B0F5807F24
:1046F00003D0A069401C0028EED1A069B0F5807FEE
:1047000002D0A069401C88B92046FEF77FFF10BD8B
:10471000600000201C5200089C0000208400002043
:104720002852000834520008405200084FF0FF3071
:10473000A0612078874951F82000006820F001002E
:104740002178844A52F8211008602078824951F873
:104750002000808820F4007021787F4A52F82110D0
:1047600088802078114651F82000808820F48050FD
:10477000217852F821108880012020732046FEF70E
:1047800082FD7DE037E032E0FFE7A078012877D1B5
:10479000606900F40000002872D020786E4951F85A
:1047A0002000808820F4006021786B4A52F82110A4
:1047B00088802078674951F82000006820F00100C7
:1047C0002178644A52F8211008602078624951F833
:1047D0002000808820F4007021785F4A52F8211070
:1047E0008880012020732046FEF74DFD48E02046DA
:1047F000FEF749FD44E02078584951F8200000F0C8
:10480000005050B12078564951F820004068217876
:10481000524A52F82110084009E02078504951F8D6
:104820002000006821784D4A52F82110084000B15C
:1048300026E020784B4951F8200000F0005050B19C
:104840002078474951F8200040682178454A52F8BD
:104850002110084009E02078414951F82000006803
:104860002178404A52F82110084048B110202073A6
:104870002078384951F820004068A168486000BF9E
:104880002078394951F8200000F0005090B120788C
:1048900051F820002178314A52F82110084321783C
:1048A000304A52F82110084321782D4A52F821103D
:1048B000C86012E020782C4951F820002178274A5E
:1048C00052F8211008432178264A52F82110084353
:1048D0002178234A52F821108860002017E710B58C
:1048E000002400BF33E0214850F8240070B31F4873
:1048F00050F824008069D0B94FF0FF301B4951F8BF
:10490000241088611020194951F8241008731748A1
:1049100050F824000069C8B9FF20144951F8241048
:104920000861124951F82400FEF77EFC0EE00F48A2
:1049300050F824008069401C40B10C4850F8240015
:104940008069401E094951F824108861641C032CB9
:10495000C9D310BD90000020600000204C52000818
:104960009C000020585200084052000834000020EB
:1049700010B50446FA4951F824000121FDF78EF8DC
:10498000F74951F824000021FDF788F8F44951F85F
:1049900024000121FDF72DF810BD10B50446F049A3
:1049A00051F824000121FDF779F8ED4951F8240070
:1049B0000021FDF773F8EA4951F824000021FDF7C2
:1049C00018F810BD1CB50446E64951F82410E64A13
:1049D00052F8242041EA02000121FCF7C1FFE34B19
:1049E00013F82420E24B33F81410E24B53F8240060
:1049F000FCF777FBDD4B13F82420DF4B33F8141062
:104A0000DE4B53F82400FCF76CFB02208DF8050008
:104A10008DF8040001208DF8060000208DF80700B5
:104A2000D74830F814000090D24951F82400694664
:104A3000FCF7CCFAD34830F814000090CF4951F875
:104A400024006946FCF7C2FA1CBD1CB504460220CE
:104A50008DF8050000208DF80400C94830F81400D6
:104A60000090C44951F824006946FCF7AFFAC548E4
:104A700030F814000090C14951F824006946FCF751
:104A8000A5FA1CBD70B504460D461646BE4951F840
:104A900024000121FCF764FFBC4850F82400BC4905
:104AA000086000208860086148614FF48060886178
:104AB0000020C861086248624FF4403088620020DC
:104AC000C862086348638863B24850F824004860AD
:104AD00005F0010038B14020C860AF4951F824000A
:104AE000AB49FCF7BBF805F0020040B10020A84933
:104AF000C860AA4951F82400A549FCF7AFF870BD79
:104B000070B504460D461646A04850F82400A0494A
:104B1000086028688860686808619E4850F824002A
:104B2000486006F4804018B14FF48070486202E09B
:104B300000209749486240209549C860964951F83D
:104B400024009349FCF78AF870BD70B504460D4601
:104B500016468E4850F824008D4908602868886001
:104B6000686808618B4850F82400486006F40040EB
:104B700018B14FF48070486202E000208449486216
:104B800000208349C860854951F824008049FCF71A
:104B900065F870BD70B504460D4605F0010020B102
:104BA0007D4951F82400FBF7B7FF05F0020020B162
:104BB0007A4951F82400FBF7AFFF70BDF8B5044601
:104BC0000D4616461F46FEF771FB01208DF80300C7
:104BD0007348005D8DF800007248005D8DF801009B
:104BE0007148005D8DF802006846FBF7F8FC05F49B
:104BF0008000C0B96D48005D8DF800006C48005D14
:104C00008DF801006B48005D8DF802006846FBF7E7
:104C1000E6FC694850F82400808840F480706649BA
:104C200051F824108880022F65D106F0010078B376
:104C30006248005D8DF800006148005D8DF801005C
:104C40006048005D8DF802006846FBF7C8FC5248DA
:104C500050F82400006840F010004F4951F824102B
:104C600008604D4850F82400006840F004004A49AC
:104C700051F82410086005F4007048B1464850F817
:104C80002400006840F00800434951F824100860EF
:104C900006F0020078B34C48005D8DF800004B48E8
:104CA000005D8DF801004A48005D8DF802006846FD
:104CB000FBF795FC394850F82400006840F01000DC
:104CC000364951F824100860344850F82400006830
:104CD00040F00400314951F82410086005F4805078
:104CE00048B12E4850F82400006840F008002B49D5
:104CF00051F824100860F8BDF8B504460E46154674
:104D00001F4600208DF801008DF802008DF8030089
:104D10002348005D8DF800006846FBF760FC06F450
:104D2000800030B92148005D8DF800006846FBF72F
:104D300056FC022F13D105F0010030B11F48005D71
:104D40008DF800006846FBF74AFC05F0020030B120
:104D50001D48005D8DF800006846FBF740FCF8BD7B
:104D600088510008B4510008CC510008A051000837
:104D7000C05100086C000020D851000878000020C5
:104D8000AC510008C6510008E0510008EC51000881
:104D9000A001002094510008840000209000002011
:104DA000FE51000804520008075200080152000892
:104DB0000A5200080D52000860000020F851000857
:104DC0001052000813520008FB5100081652000848
:104DD0001952000810B50A48FFF711FA10BD10B5B6
:104DE0000748FFF74FFA002010BD10B50448FFF741
:104DF000BBFA10BD10B50248FFF725FC10BD00003E
:104E0000400000201CB501210220FCF7A9FD4FF451
:104E10008060009001208DF8040003208DF80500CB
:104E200000208DF8060001208DF8070069468348B0
:104E3000FCF7CCF84FF40060009001208DF80400DE
:104E400003208DF8050000208DF8060001208DF864
:104E5000070069467948FCF7B9F84FF48061774854
:104E6000FCF730F94FF400617448FCF72BF95A2035
:104E70007349486073480860372073494860734835
:104E800008607348FEF725FB01207149887071485E
:104E900048610220C8707048C969086070206C4978
:104EA000C969088166486A49886067484860084659
:104EB000FEF712FA1CBDB120614988606249886022
:104EC0000220664908607047B1205D4988605E49EC
:104ED0008860012061490860704710B55F4800682C
:104EE000FF2802D15E48006838B15E48006801289A
:104EF00012D15B48006801280ED15B480078012878
:104F000005D1FFF7D8FF00205749087004E0FFF7EC
:104F1000DBFF01205449087050480068FE2856D035
:104F20004E480068FF2852D04D480068012803D140
:104F30004C48006801280BD04548007B012803D06D
:104F40004348007B002842D14548006800283ED1F4
:104F500044480068012805D13D48406920F0804060
:104F60003B49486100203F4908605A203449486065
:104F700037203549486039480068012808D00228A0
:104F80000DD101203949086030482F49086007E0F9
:104F90000020364908602B482949086000E000BF1E
:104FA00000BF00202A49887001200873FE202B4989
:104FB000086000202A4908602C480068012803D1B5
:104FC0002348FEF730FB02E02148FEF7BEFB10BD90
:104FD0002749002003E01B4A125C0A54401C5A284F
:104FE000F9D3704710B5034607E018780C78A04253
:104FF00001D0002010BD5B1C491C1000A2F101046F
:10500000A2B2F2D10120F5E7F0B506460F461446EC
:105010001D462A4639463046FFF7E4FF012801D1F4
:105020000020F0BD2A4621463046FFF7DBFF01286D
:1050300000D1F6E7FF20F4E700BFFEE700040240DE
:10504000240300206D0200203403002036020020DB
:105050004000002000000140A0860100A8000020C0
:10506000B0000020B4000020B8000020AC000020F8
:10507000DC010020704700000FB4044910B503AAFA
:10508000029800F009F810BC5DF814FB2C00002019
:105090007047704770477047074B70B50D467B44AB
:1050A00000F011F80446284600F020F810B14FF047
:1050B000FF3070BD204670BDA9DDFFFF01694A1CAD
:1050C00002610878704700B58FB0CDE90131002149
:1050D000059105497944CDE903101146684600F071
:1050E0002EF80FB000BD0000E5FFFFFF007B00F0D1
:1050F00080007047754600F03DF8AE4605006946F1
:10510000534620F00700854618B020B5FDF706FE8F
:10511000BDE820404FF000064FF000074FF00008B8
:105120004FF0000B21F00701AC46ACE8C009ACE839
:10513000C009ACE8C009ACE8C0098D4670472DE94C
:10514000F04106460024D6E90170F56880463046F5
:1051500003E04146B847641C3046A8470028F8D110
:105160002046BDE8F0810446AFF300802046FBF7FF
:1051700054F8000000487047440300204FF040708E
:10518000E1EE100A7047000000002000000040001F
:10519000000080001054004010580040105C004097
:1051A00004000000040000000400000040000004AF
:1051B00000010000020000000200000001000000E9
:1051C00006000A00080000020008000202000000B9
:1051D000020000000400000009000B0009000000AC
:1051E000000020000000200000002000000000025D
:1051F0000000000E00000006112F0F0B0E0D1F21E6
:1052000048202249020202000000000000000000C5
:105210000101010000000101010000000000202048
:1052200000000028200000200000102000000024C2
:1052300010000020000008200000002208000020CC
:1052400020000010000000180000201010000010C6
:1052500000000014000010100800001000000012F0
:10526000000008108452000800000020BC0000006C
:10527000C401000840530008BC000020EC080000F6
:10528000E0010008007A030A0000000000000000AE
:1052900001020304060708090000000001020304DC
:1052A00001020304060708090000000000000000D6
:1052B000000000000000000000000000400000208E
:1052C00000000000010300020000000000000000D8
:1052D000000000000000000000000000FFFFFFFFD2
:1052E000000000000054004000580040005C0040F6
:1052F000000402400004024000000240000402409A
:105300000004024000080240A0600240B860024071
:1053100070600240106002405860024040600240ED
:10532000006002400060024000600240FF00000098
:10533000000000000100000001000000010000006A
:040000050800018965
:00000001FF
